:100000000C9461000C9473000C9473000C947300B6
:100010000C9473000C9473000C9473000C94730094
:100020000C9473000C9473000C9473000C94730084
:100030000C9473000C9473000C9473000C94730074
:100040000C9445010C9473000C9473000C94730091
:100050000C9473000C9473000C9473000C94730054
:100060000C9473000C947300000000002300260021
:10007000290000000008000201000003040700003E
:1000800000000000000000000000250028002B00F8
:1000900000000000240027002A00040404040404D3
:1000A0000404020202020202030303030303010227
:1000B00004081020408001020408102001020408F6
:1000C000102011241FBECFEFD8E0DEBFCDBF21E04E
:1000D000A0E0B1E001C01D92AD30B207E1F70E948F
:1000E0008F010C9479020C94000090E0FC01E25521
:1000F000FF4F249186569F4FFC018491882399F0ED
:1001000090E0880F991FFC01E057FF4FA591B49133
:10011000FC01EA57FF4F859194918FB7F894EC91C9
:10012000E22BEC938FBF0895833081F028F4813067
:1001300099F08230A9F008958730A9F08830C9F08D
:100140008430B1F4809180008F7D03C08091800065
:100150008F7780938000089584B58F7784BD08954C
:1001600084B58F7DFBCF8091B0008F778093B000F6
:1001700008958091B0008F7DF9CF1F93CF93DF93C7
:10018000282F30E0F901EE58FF4F8491F901E25534
:10019000FF4FD491F901E656FF4FC491CC23A9F04B
:1001A000162F81110E949400EC2FF0E0EE0FFF1F3C
:1001B000EA57FF4FA591B4918FB7F894EC911111C4
:1001C00008C0D095DE23DC938FBFDF91CF911F91C4
:1001D0000895DE2BF8CF3FB7F894809101019091FC
:1001E0000201A0910301B091040126B5A89B05C0AE
:1001F0002F3F19F00196A11DB11D3FBFBA2FA92FA6
:10020000982F8827BC01CD01620F711D811D911DA2
:1002100042E0660F771F881F991F4A95D1F708950E
:100220008F929F92AF92BF92CF92DF92EF92FF9206
:100230000E94EB004B015C0182E3C82ED12CE12C23
:10024000F12C0E94EB00681979098A099B09683E24
:10025000734081059105A8F321E0C21AD108E10895
:10026000F10888EE880E83E0981EA11CB11CC11411
:10027000D104E104F10429F7FF90EF90DF90CF90D3
:10028000BF90AF909F908F9008951F920F920FB6DE
:100290000F9211242F933F938F939F93AF93BF930C
:1002A0008091050190910601A0910701B09108018C
:1002B0003091000123E0230F2D3758F50196A11D41
:1002C000B11D209300018093050190930601A09336
:1002D0000701B09308018091010190910201A09162
:1002E0000301B09104010196A11DB11D809301018C
:1002F00090930201A0930301B0930401BF91AF91C9
:100300009F918F913F912F910F900FBE0F901F9053
:10031000189526E8230F0296A11DB11DD2CF78941F
:1003200084B5826084BD84B5816084BD85B58260FA
:1003300085BD85B5816085BD80916E0081608093AB
:100340006E00109281008091810082608093810014
:100350008091810081608093810080918000816024
:10036000809380008091B10084608093B10080917F
:10037000B00081608093B00080917A0084608093A7
:100380007A0080917A00826080937A0080917A006E
:10039000816080937A0080917A00806880937A00EF
:1003A0001092C1008AE00E9475008BE00E947500E7
:1003B000CEE7D0E00AEB10E096EAE92E90E0F92EC5
:1003C00020E0C22E20E0D22EFE018491F801A490FC
:1003D000F701B490BB20C1F381110E949400EB2D72
:1003E000F0E0EE0FFF1FE859FF4FA591B4918C91FB
:1003F000A82251F32FB7F89480910501909106013E
:10040000A0910701B09108012FBF409109015091BF
:100410000A0160910B0170910C01841B950BA60BD6
:10042000B70B843F9140A105B10568F461E08AE013
:100430000E94BD000E94100160E08AE00E94BD00A1
:100440000E941001D7CF2FB7F894809105019091A9
:100450000601A0910701B09108012FBF8093090107
:1004600090930A01A0930B01B0930C012FB7F8945D
:100470008091050190910601A0910701B0910801BA
:100480002FBF4091090150910A0160910B017091B9
:100490000C01841B950BA60BB70B843F9140A10563
:1004A000B10568F461E08BE00E94BD000E9410017C
:1004B00060E08BE00E94BD000E941001D7CF2FB7F3
:1004C000F8948091050190910601A0910701B091E7
:1004D00008012FBF8093090190930A01A0930B019B
:1004E000B0930C01C114D10409F46ECF0E94000036
:0604F0006BCFF894FFCF72
:00000001FF
